:1000000012C063C1A4C11895189518951895189534
:1000100022C1D8C118951895189518951895189556
:100020001895189518958FE58DBFC8E3E0E24E2E20
:1000300084E08EBFD4E0F4E05F2EA89584B7082E4C
:10004000877F84BF88E1992781BD91BDEEEFF3E002
:10005000A0E6B0E088278D933197E9F71CD266249B
:10006000E8E7F0E080E45FD258E0C895802D55D2F3
:1000700031965A95D1F704C00C12120C2020202082
:100080008CE051D285B7837F886085BF85B78C7F30
:10009000826085BF80E08FBD84E08EBD82E083BF3B
:1000A0008A988B98BA9A86E886B980E087B9379A99
:1000B000939A929AC298DED1E2D1E8EBFBE0D2D1DA
:1000C000D7D1E8ECFBE0CED1E3E0F0E0DBD1D2D158
:1000D000D6D179B7716079BF7BB770647BBF7BB7CE
:1000E00070687BBF79B7746079BF789407B1007F7F
:1000F000046007B932D3ADE6B0E08D939C93E8EA93
:10010000FBE06CD4EDE6F0E0D190E080FF24002726
:1001100085D326D4EDE0F0E0AFE6B0E03FD5ECEAE1
:10012000FBE05CD4EFE6F0E055D3C4D3EDE0F0E0C3
:10013000AFE6B0E033D5EFE6F0E018D3AAE6B0E0E2
:10014000DC9200916B00013009F028C0A4E6B0E019
:100150000D911D912D913C914FEF5FEF60E070E0AC
:10016000A7D4A4E6B0E00D931D932D933D9341E5F4
:1001700055E262E070E0A4E6B0E00D911D912D9192
:100180003C919BD414F009F001C005C0A0E6B0E09A
:10019000E0EBFBE030D480E080936B0000916C00DA
:1001A000013009F02EC0A8E6B0E00C9111272227FB
:1001B0003327A4E6B0E04D915D916D917C9178D4A8
:1001C000A4E6B0E00D931D932D933D93E4E6F0E09B
:1001D00001D324D354D3E4EBFBE0F7D36BD3EDE0AE
:1001E000F0E0A0E6B0E0DAD400E010E020E030E09B
:1001F000A4E6B0E00D931D932D933C9380E0809393
:100200006C003DD1E6EDFBE02DD1A8E0B4E0EAE6DC
:10021000F0E075D41FD180E080D1EEEDFBE022D17B
:1002200027D1E2EEFBE01ED1A8E0B4E0AF93BF938C
:10023000E0E6F0E0CFD2B2D111E001E0BF91AF91A2
:10024000EFD3E8E0F4E0A8E0B4E0A3D403D1E8EE13
:10025000FBE008D14BCF0F921F922F923F924F920B
:100260005F927F92AF92BF920F931F932F933F9312
:100270004F935F936F937F938F939F93AF93BF93AE
:10028000CF93DF93EF93FF938FB78F9381E08093AA
:100290006B008F918FBFFF91EF91DF91CF91BF9155
:1002A000AF919F918F917F916F915F914F913F910E
:1002B0002F911F910F91BF90AF907F905F904F90C3
:1002C0003F902F901F900F9018950F921F922F9292
:1002D0003F924F925F927F92AF92BF920F931F9384
:1002E0002F933F934F935F936F937F938F939F933E
:1002F000AF93BF93CF93DF93EF93FF938FB78F931A
:1003000080914C008093680080E090E09DBD8CBDA2
:1003100081E080936C008F918FBFFF91EF91DF910F
:10032000CF91BF91AF919F918F917F916F915F918D
:100330004F913F912F911F910F91BF90AF907F9060
:100340005F904F903F902F901F900F9018950F92B5
:100350001F922F923F924F925F927F92AF92BF92E5
:100360000F931F932F933F934F935F936F937F93BD
:100370008F939F93AF93BF93CF93DF93EF93FF93AD
:100380008FB78F9380E080936900C2988F918FBF61
:10039000FF91EF91DF91CF91BF91AF919F918F919D
:1003A0007F916F915F914F913F912F911F910F918D
:1003B000BF90AF907F905F904F903F902F901F9095
:1003C0000F9018950F921F922F923F924F925F922B
:1003D0007F92AF92BF920F931F932F933F934F93B0
:1003E0005F936F937F938F939F93AF93BF93CF93BD
:1003F000DF93EF93FF938FB78F9372EB72BFA9E6F2
:10040000B0E08C918F5F8C9340916A0000916900FD
:10041000041710F009F001C001C0C29A8F918FBF7C
:10042000FF91EF91DF91CF91BF91AF919F918F910C
:100430007F916F915F914F913F912F911F910F91FC
:10044000BF90AF907F905F904F903F902F901F9004
:100450000F901895A8E0B4E08D91882311F05DD03D
:10046000FBCF0895AED2802D11F057D0FBCF089569
:1004700080EC59C081E057D00BD080E854C080E8B0
:1004800052D0089588EE93E07AD03197D9F7089545
:1004900083E0992774C08AEF90E071D0B99AB89A36
:1004A0008F9A8E9A8D9A8C9A949885E090E067D076
:1004B0009598C198C098979A969A959AEF93FF93BA
:1004C000E8E2F1E050D0FF91EF91959855D0959AE0
:1004D000EF93FF93E8E2F1E046D0FF91EF9195981A
:1004E0004BD0959AEF93FF93E8E2F1E03CD0FF9177
:1004F000EF91959841D09698959AEF93FF93E8E203
:10050000F1E031D0FF91EF91959836D088E20BD091
:100510008EE009D086E007D00895949A829505D0A0
:1005200004D02AD008959498F9CF859510F4969A1E
:1005300001C09698859510F4979A01C09798859573
:1005400010F4C09A01C0C098859510F4C19A01C0FA
:10055000C198959AEF93FF93E8E2F1E004D0FF9100
:10056000EF91959808953197F1F70895689462F89E
:100570000895E89462F8089581E090E000C0EF9358
:10058000FF93EE27E82BE92B31F0E8EBFBE0319706
:10059000F1F70197D1F7FF91EF9108958DE207FDF3
:1005A0008D938F2D881F802F881F8F57082F689459
:1005B000F7F8802F87FF15C080958395082F80E37B
:1005C0008D938EE28D93802F815228F080E38D935E
:1005D00099279C93089544270A95802F09F192D07A
:1005E0001FC0805230F09EE49D9381E48D939D93D3
:1005F000EFCF4427DF92EF92FF920F938FE1801BA2
:1006000011F0082F7FD085D09EE29D930F91FF902F
:10061000EF90DF9044270395003209F4D7CF27D01D
:100620003F93E4EAF6E038E12F2D1E2D0D2DFF2437
:10063000EE24DD244427000F111F221F88F42F927F
:100640003F92BFD1102CBDD1202CBBD1302CB9D1C1
:100650003197410DD21CE31CF01C3F902F9001C03C
:10066000339631963A9539F73F9107D0B3CFDD0CE9
:10067000EE1CFF1C0A95D9F70895002719E058D001
:100680008F93802B11F0039501C08F911A95B9F7C4
:10069000802F882309F49ACF8F91805D8D930A95DE
:1006A000D9F796CF0065CD1D80B2E60E405973078D
:1006B000A0ACB90350D6DC01286BEE00943577006E
:1006C000CA9A3B0065CD1D00B2E60E0059730700C3
:1006D000ACB90300D6DC01006BEE000035770000FA
:1006E0009A3B0000CD1D0000E60E000073070000DD
:1006F000B9030000DC010000EE00000077000000FC
:100700003B000000F694E794D79447950A95D1F7FB
:10071000089500270DD08F9303958F2D8E298D2955
:10072000842BC1F78F91805D8D930A95D9F750CFB7
:100730001F930F93002710E2440FDD1CEE1CFF1CDB
:10074000001F802F9AE0890B10F0082F43951A950F
:1007500099F7802F0F911F910895369A3699FECF01
:10076000369A3699FECF84B195B1089533D0992742
:1007700011278F2D880F80E8F82A802F881F08F412
:100780001FEF41F08F57082F07FD04C0003240F0E3
:100790008FEF01C08827982FD82EE82EF82E09C099
:1007A0008FE1801B082FF694E794D79497950A95CC
:1007B000D1F7112351F09095D094E094F09481E01A
:1007C000980F8827D81EE81EF81E0F2DFE2CED2C42
:1007D000D92E0895D190E190F19001910895219141
:1007E0003191419151910895102F90E8FF0C001F15
:1007F0000927990FF7941078652F90E8440F551F3B
:100800005927990F4795607800380895FF0C90E8B4
:100810009027110F9795F794092F0895102FBD2C4D
:10082000DE2CEF2CF02E11234AF4B094D094E094F7
:10083000F0949FEFB91AD90AE90AF90A0EE1FF20EC
:1008400039F4FE2CED2CDB2CBB240850C2F766C01B
:1008500032F00A95BB0CDD1CEE1CFF1CF9CF01D059
:10086000D5CFB7FE089590E8B91611F4D0FE0895DB
:100870009FEFD91AE90AF90A09F403950895502F50
:100880002D2D3E2D4F2D612F08952DEC3CEC4CEC81
:100890005DE366270FC09EDFF2DFDD24EE2490E8E3
:1008A000F92E0FE307C09BDF05C02227332740E264
:1008B00051E46627552351F1002381F195DF71F151
:1008C0001627005850580894050B18F407FD03C06C
:1008D00025C007FD23C0469537952795F694E794E4
:1008E000D79422D0FF202AF0DD0CEE1CFF1C015013
:1008F00073F09D2D969548F0DD203AF4EE202AF411
:1009000091E0D90E9927E91EF91E80CF07C09FE715
:10091000092FF92A9FEFD92EE92E0895DD24EE2420
:10092000FF240027112708959F929924AA24BB240D
:1009300088E1D216E306F40628F0D21AE30AF40A94
:10094000089401C08894991CAA1CBB1CDD0CEE1CE9
:10095000FF1C8A9571F7D92CEA2CFB2C9F900895E7
:1009600043DFE1F25038D1F216270058505808946E
:10097000051F12F418F4CBCF08F0D0CF0BD0FF2016
:100980002AF0BB0CDD1CEE1CFF1C40CF0F5F0BF4EC
:10099000BECF3CCF9F929924AA24BB24992788E1FB
:1009A000990CAA1CBB1CDD1CEE1CFF1C30F4920E23
:1009B000A31EB41ED91EE91EF91E8A9589F79F90C1
:1009C0000895C895319600200895FBDFD02CF9DFFB
:1009D000E02CF7DFF02CF5DF002D0895F2DF202D5D
:1009E000F0DF302DEEDF402DECDF502D089591E04B
:1009F00005C092E003C094E001C098E0E2DF0D92F0
:100A00009A95E1F7089599278D9193958823E1F7B9
:100A1000939511968C9311978E919A95D1F708958D
:100A2000EA2FFB2F00244C918D9103948E32E1F735
:100A300011248D9113948823E1F71A94101640F431
:100A40001197202F2119239580E38D932A95E9F79B
:100A5000113039F59927AE2FBF2FA00DB91FA00F68
:100A6000B91F8C919C93853308F421C031E08E919D
:100A70008E32E9F38D3241F0830F8A3319F480E32B
:100A800031E001C033278C93AE1789F7332341F04F
:100A9000AE2FBF2FB8DF81E34D3209F4319680834A
:100AA00008958827E00DF81FE00FF81F8083089550
:100AB000040F151F261F371F089504171507260753
:100AC00037070895000F111F221F331F0895009547
:100AD0001095209530950F5F1F4F2F4F3F4F089572
:100AE000019110810EC001911191219130810BC0B3
:100AF0000191108117FF05C03FEF2FEF04C0008167
:100B000011272227332737FF03C0E1DF8DE28D93C2
:100B1000CF93DF93CF92DF92EF92AA24BB24CC2411
:100B2000DD24EE2440E2CAE0DD2755E093E388812E
:100B3000890F87FD9F7083FD907F891B89935A954C
:100B4000A9F7C0DFAA1CBB1CCC1CDD1CEE1C4A95FF
:100B500051F7E894EFE0FF2782910ED0EB30E0F7F9
:100B60001EF068948A2D0CD088278D93EF90DF902B
:100B7000CF90DF91CF910895982F829501D0892F42
:100B80008F70805D26F0803309F4089568948D930A
:100B9000089581918D938823E1F7089594E08191E0
:100BA0008D939A95E1F708950000344300C07F4487
:100BB0000000000050A92B4A50454E59554C555441
:100BC000414E2053435200005354544E4153204A47
:100BD0004F474A41000053756475743D0000202062
:100BE000000052706D3D0000202020202020202099
:020BF0002000E3
:00000001FF
