:100000000C945D000C9490030C9469030C9485008F
:100010000C9485000C9485000C9485000C9485004C
:100020000C9485000C9485000C9485000C9485003C
:100030000C9485000C94B7030C9485000C948500F7
:100040000C941F030C9485000C9485000C9485007F
:100050000C9485000C9485000C9485000C9485000C
:100060000C9485000C9485000000000024002700FB
:100070002A0000000000250028002B0004040404CE
:100080000404040402020202020203030303030342
:10009000010204081020408001020408102001021F
:1000A00004081020000000080002010000030407FB
:1000B0000000000000000000DE0511241FBECFEF8D
:1000C000D8E0DEBFCDBF11E0A0E0B1E0E4E5F0E1B3
:1000D00002C005900D92AE33B107D9F721E0AEE32F
:1000E000B1E001C01D92A936B207E1F710E0CDE5FD
:1000F000D0E004C02197FE010E941D08CC35D10735
:10010000C9F70E94DC030C9428080C94000090E0CE
:10011000FC01EC55FF4F2491FC01E057FF4F349157
:10012000FC01E458FF4FE491EE2309F43CC0222384
:1001300039F1233091F038F42130A9F0223001F563
:1001400084B58F7D12C0273091F02830A1F0243083
:10015000B9F4809180008F7D03C0809180008F77FB
:10016000809380000DC084B58F7784BD09C08091D5
:10017000B0008F7703C08091B0008F7D8093B00076
:10018000F0E0EE0FFF1FEE58FF4FA591B4919FB71F
:10019000F894611104C08C913095382302C0EC9121
:1001A0003E2B3C939FBF0895CF93DF9390E0FC01DB
:1001B000E057FF4F2491FC01E458FF4F84918823BE
:1001C00061F190E0880F991FFC01E859FF4FC5913C
:1001D000D491FC01EE58FF4FA591B491611109C073
:1001E0009FB7F8948881209582238883EC912E23F1
:1001F0000BC0623061F49FB7F8948881322F30953C
:1002000083238883EC912E2B2C939FBF06C08FB73E
:10021000F894E8812E2B28838FBFDF91CF9108952A
:100220003FB7F89480914D0190914E01A0914F01FC
:10023000B091500126B5A89B05C02F3F19F001963B
:10024000A11DB11D3FBFBA2FA92F982F8827820F5C
:10025000911DA11DB11DBC01CD0142E0660F771FAC
:10026000881F991F4A95D1F7089560E084E00E94A5
:10027000870020913E0130913F014AE0429FC0013A
:10028000439F900D1124019690934701809346015E
:100290000895809140019091410101969093410110
:1002A0008093400108950895CF92DF92EF92FF92DC
:1002B0000F931F93CF93DF936C017A018B01C0E002
:1002C000D0E0CE15DF0581F0D8016D918D01D6010A
:1002D000ED91FC910190F081E02DC6010995892BEB
:1002E00011F02196EECF7E01C701DF91CF911F91D2
:1002F0000F91FF90EF90DF90CF900895CF93DF9311
:10030000EC0160E08E810E94870061E08E810E9496
:10031000870060E08E810E9487008BE891E0019762
:10032000F1F7DF91CF910895CF92DF92EF92FF9294
:100330000F931F93CF93DF936C017C0187E0E80E4E
:10034000F11CC0E0D0E0062F10E0B8010C2E02C076
:10035000759567950A94E2F76170F70181917F01C5
:100360000E9487002196C430D10579F7C601DF913C
:10037000CF911F910F91FF90EF90DF90CF900C9451
:100380007E01CF92DF92EF92FF920F931F93CF9354
:10039000DF93EC01F62E642F8C810E9487008D8103
:1003A0008F3F19F060E00E9487008F850F2D10E0CD
:1003B00084FF25C06E0187E0C80ED11CE12CF12C12
:1003C000B8010E2C02C0759567950A94E2F761702A
:1003D000F60181916F010E948700FFEFEF1AFF0A7B
:1003E00088E0E816F10461F7CE01DF91CF911F910B
:1003F0000F91FF90EF90DF90CF900C947E01B801A9
:1004000084E0759567958A95E1F7CE010E94940185
:100410006F2DCE01DF91CF911F910F91FF90EF9043
:10042000DF90CF900C94940140E0682F81E591E03B
:100430000C94C101CF93DF93823028F0909160013A
:10044000986090936001809364011092650180E44C
:100450008093660180E18093670180E58093680165
:1004600061E0809155010E94D400809156018F3F38
:1004700019F061E00E94D40061E0809157010E9470
:10048000D400C1E5D1E09E01215531408091600149
:1004900084FD03C084E090E002C088E090E02196F3
:1004A000281739072CF461E08E810E94D400EBCF2D
:1004B0008BE39DE00197F1F760E0809155010E9488
:1004C000870060E0809157010E948700809156016B
:1004D0008F3F19F060E00E9487008091600184FDE9
:1004E00020C063E081E591E00E949401CBE4D6E472
:1004F000CE010197F1F763E081E591E00E9494015C
:100500002197F1F763E081E591E00E94940183E592
:1005100092E00197F1F762E081E591E00E94940199
:1005200015C080620E9414028BE496E40197F1F7F3
:100530008091600180620E94140283E592E001973D
:10054000F1F78091600180620E9414028091600145
:1005500080620E94140284E0809361018CE00E941A
:10056000140281E00E9414028BE39FE10197F1F7EE
:1005700082E08093620186E0DF91CF910C941402B7
:1005800041E00E94C10181E090E00895089580E07B
:1005900090E00895009769F0FC0101900020E9F7D0
:1005A0003197AF01481B590BBC0181E591E00C94D8
:1005B000540180E090E008958F929F92AF92BF9295
:1005C0000F931F93CF93DF93CDB7DEB7A1970FB6ED
:1005D000F894DEBF0FBECDBF19A2423008F44AE046
:1005E0008E010F5D1F4F842E912CA12CB12CA501E3
:1005F00094010E941B06E62FB901CA01015011099E
:10060000EA3014F4E05D01C0E95CD801EC93232BDF
:10061000242B252B61F7C8010E94CA02A1960FB6B0
:10062000F894DEBF0FBECDBFDF91CF911F910F9128
:10063000BF90AF909F908F9008950E9423081F92C3
:100640000F920FB60F9211242F933F938F939F9386
:10065000AF93BF938091490190914A01A0914B01C2
:10066000B0914C013091480123E0230F2D3720F445
:100670000196A11DB11D05C026E8230F0296A11DFC
:10068000B11D209348018093490190934A01A093A2
:100690004B01B0934C0180914D0190914E01A0917E
:1006A0004F01B09150010196A11DB11D80934D01E4
:1006B00090934E01A0934F01B0935001BF91AF9121
:1006C0009F918F913F912F910F900FBE0F901F9090
:1006D00018951F920F920FB60F9211242F933F93EC
:1006E0004F935F936F937F938F939F93AF93BF933A
:1006F000EF93FF93E0910201F09103010995FF91BF
:10070000EF91BF91AF919F918F917F916F915F9189
:100710004F913F912F910F900FBE0F901F90189502
:100720001F920F920FB60F9211242F933F934F9366
:100730005F936F937F938F939F93AF93BF93EF9349
:10074000FF93E0910001F09101010995FF91EF9174
:10075000BF91AF919F918F917F916F915F914F91D9
:100760003F912F910F900FBE0F901F9018951F92E1
:100770000F920FB60F9211242F933F934F935F93D5
:100780006F937F938F939F93AF93BF93EF93FF9359
:10079000E0E0F0E00995FF91EF91BF91AF919F915B
:1007A0008F917F916F915F914F913F912F910F901A
:1007B0000FBE0F901F901895789484B5826084BD09
:1007C00084B5816084BD85B5826085BD85B5816055
:1007D00085BD80916E00816080936E0010928100D3
:1007E000809181008260809381008091810081608E
:1007F000809381008091800081608093800080914F
:10080000B10084608093B1008091B00081608093DA
:10081000B00080917A00846080937A0080917A00A1
:10082000826080937A0080917A00816080937A0060
:1008300080917A00806880937A001092C10061E014
:1008400084E00E94D40060E08EE00E94D40060E06A
:1008500082E00E94D40062E083E00E94D40085E33D
:1008600091E0909301018093000180916900836081
:1008700080936900E89A89E491E090930301809362
:100880000201809169008C6080936900E99A82E09E
:100890000E941A0280E191E00E94CA0281E00E9457
:1008A00014028BE39FE10197F1F7C0E4CC24CA94D2
:1008B00033E0D32EE12CF12C00E010E080914601D2
:1008C000909147010097E1F18130910539F0880F4F
:1008D000991F880F991F05970197F1F7109247010B
:1008E0001092460161E084E00E9487000E9410019E
:1008F0002B013C0182E0882E912CA12CB12C0E946E
:100900001001DC01CB0184199509A609B709883EBD
:100910009340A105B10598F321E0821A9108A1083E
:10092000B10888EE480E83E0581E611C711C8114CA
:100930009104A104B10419F760E084E00E948700EB
:100940002FB7F8948091490190914A01A0914B01F1
:10095000B0914C012FBF40914201509143016091F1
:100960004401709145014C015D01841A950AA60A63
:10097000B70A24EF821621E09206A104B10408F41C
:1009800016C18093420190934301A0934401B09318
:1009900045016091400170914101072E000C880BC8
:1009A000990B0E94EF0620E030E040E250E40E9404
:1009B000A4074B015C011092410110924001E091AB
:1009C0006401E23010F4E15001C0E1E0F0E0EF5AE0
:1009D000FE4F848980680E94140281E291E00E94A7
:1009E000CA02A5019401C501B4010E94110888231F
:1009F00019F088E291E01AC024013501E89477F8F3
:100A00002FEF3FEF4FE75FE7C301B2010E941108EC
:100A100081110FC02FEF3FEF4FE75FE7C301B20136
:100A20000E94B90618162CF48CE291E00E94CA02CA
:100A300078C02FEF3FEF4FE75FE4C501B4010E949C
:100A40009F0718161CF480E391E0F0CF2FEF3FEFE3
:100A50004FE75FECC501B4010E94B90687FDF3CFF3
:100A600020E030E0A901C501B4010E94B90687FF6A
:100A70000AC041E06DE281E591E00E94C101B7FA50
:100A8000B094B7F8B0942AE037ED43EA5BE3C501D0
:100A9000B4010E944D062B013C010E94BE064B0191
:100AA0005C010E94ED069B01AC01C301B2010E94F2
:100AB0004C062B013C014AE0C501B4010E94DC0256
:100AC00041E06EE281E591E00E94C10120E030E06A
:100AD00040E251E4C301B2010E94A4072B013C0192
:100AE0000E94BE064B01A12CB12C4AE0C501B40105
:100AF0000E94DC02C501B4010E94ED069B01AC011D
:100B0000C301B2010E944C0620E030E040E251E413
:100B10000E94A4070E94BE0680E090E04AE00E9486
:100B2000DC02E1E0809164018111E0E0E195F0E018
:100B3000EF5AFE4F848980680E94140284E391E09A
:100B40000E94CA02C0937C0080917A0080648093E6
:100B50007A0080917A0086FDFCCFA0917800809188
:100B60007900B0E0B82BB0933F01A0933E0124EB95
:100B700030E00E941608A70196010E94FC05490179
:100B80005A0157FF0FC041E06DE281E591E00E94FC
:100B9000C10166277727CB01681979098A099B0962
:100BA0004AE003C04AE0C501B4010E94DC0201151D
:100BB000110509F483CE0E94000080CEE1E5F1E04A
:100BC0001382128288E091E0918380838DE0848398
:100BD0008FEF85838CE086838BE087838AE0808734
:100BE00089E0818788E082871386148615861686B9
:100BF000178681E00C941A02052E97FB1EF40094D0
:100C00000E94130657FD07D00E941B0607FC03D065
:100C10004EF40C94130650954095309521953F4F16
:100C20004F4F5F4F089590958095709561957F4FD8
:100C30008F4F9F4F0895A1E21A2EAA1BBB1BFD01E7
:100C40000DC0AA1FBB1FEE1FFF1FA217B307E407AB
:100C5000F50720F0A21BB30BE40BF50B661F771F03
:100C6000881F991F1A9469F76095709580959095E3
:100C70009B01AC01BD01CF010895A29FB001B39FBC
:100C8000C001A39F700D811D1124911DB29F700D95
:100C9000811D1124911D08955058BB27AA270E9439
:100CA00064060C9465070E94570738F00E945E079F
:100CB00020F039F49F3F19F426F40C9454070EF4F5
:100CC000E095E7FB0C944E07E92F0E94760758F356
:100CD000BA17620773078407950720F079F4A6F521
:100CE0000C9498070EF4E0950B2EBA2FA02D0B0153
:100CF000B90190010C01CA01A0011124FF27591B61
:100D000099F0593F50F4503E68F11A16F040A22F66
:100D1000232F342F4427585FF3CF469537952795D7
:100D2000A795F0405395C9F77EF41F16BA0B620BD6
:100D3000730B840BBAF09150A1F0FF0FBB1F661F1D
:100D4000771F881FC2F70EC0BA0F621F731F841F60
:100D500048F4879577956795B795F7959E3F08F086
:100D6000B0CF9395880F08F09927EE0F9795879548
:100D700008950E942A0708F481E008950E947E07E2
:100D800088F09F5798F0B92F9927B751B0F0E1F04C
:100D9000660F771F881F991F1AF0BA95C9F714C0FC
:100DA000B13091F00E949807B1E008950C94980733
:100DB000672F782F8827B85F39F0B93FCCF3869535
:100DC00077956795B395D9F73EF490958095709592
:100DD00061957F4F8F4F9F4F0895E89409C097FB0F
:100DE0003EF490958095709561957F4F8F4F9F4F02
:100DF0009923A9F0F92F96E9BB279395F695879546
:100E000077956795B795F111F8CFFAF4BB0F11F408
:100E100060FF1BC06F5F7F4F8F4F9F4F16C08823AF
:100E200011F096E911C0772321F09EE8872F762FE5
:100E300005C0662371F096E8862F70E060E02AF026
:100E40009A95660F771F881FDAF7880F9695879512
:100E500097F90895990F0008550FAA0BE0E8FEEFE7
:100E600016161706E807F907C0F012161306E4076E
:100E7000F50798F0621B730B840B950B39F40A2667
:100E800061F0232B242B252B21F408950A2609F445
:100E9000A140A6958FEF811D811D089597F99F6749
:100EA00080E870E060E008959FEF80EC08950024F2
:100EB0000A941616170618060906089500240A94BF
:100EC00012161306140605060895092E0394000C45
:100ED00011F4882352F0BB0F40F4BF2B11F460FFD4
:100EE00004C06F5F7F4F8F4F9F4F089557FD9058FD
:100EF000440F551F59F05F3F71F04795880F97FBDE
:100F0000991F61F09F3F79F0879508951216130697
:100F10001406551FF2CF4695F1DF08C016161706C6
:100F20001806991FF1CF86957105610508940895FB
:100F3000E894BB2766277727CB0197F908950E948D
:100F40002A0708F48FEF08950E94B7070C946507ED
:100F50000E94570738F00E945E0720F0952311F099
:100F60000C944E070C94540711240C9499070E947A
:100F7000760770F3959FC1F3950F50E0551F629F60
:100F8000F001729FBB27F00DB11D639FAA27F00DE2
:100F9000B11DAA1F649F6627B00DA11D661F829F09
:100FA0002227B00DA11D621F739FB00DA11D621FEE
:100FB000839FA00D611D221F749F3327A00D611D0B
:100FC000231F849F600D211D822F762F6A2F1124ED
:100FD0009F5750409AF0F1F088234AF0EE0FFF1F20
:100FE000BB1F661F771F881F91505040A9F79E3F77
:100FF000510580F00C944E070C9499075F3FE4F381
:10100000983ED4F3869577956795B795F795E795CC
:101010009F5FC1F7FE2B880F911D9695879597F9D5
:1010200008950E942A07880B990B08950E943D0697
:10103000B7FF0895821B930B0895EE0FFF1F0590D5
:10104000F491E02D099481E090E0F8940C94280844
:04105000F894FFCF42
:101054005301530100000000C0025401C702C6023C
:101064003D3D3D3D3D3D49544E593D3D3D3D3D3D5C
:101074000052504D203D20006E616E00696E660086
:0E1084006F7666005355445554203D20000001
:00000001FF
