:100000000C945D000C946A030C9443030C948500DB
:100010000C9485000C9485000C9485000C9485004C
:100020000C9485000C9485000C9485000C94B90305
:100030000C9485000C9491030C9485000C9485001D
:100040000C94F9020C9485000C9485000C948500A6
:100050000C9485000C9485000C9485000C9485000C
:100060000C9485000C9485000000000024002700FB
:100070002A0000000000250028002B0004040404CE
:100080000404040402020202020203030303030342
:10009000010204081020408001020408102001021F
:1000A00004081020000000080002010000030407FB
:1000B0000000000000000000ED0511241FBECFEF7E
:1000C000D8E0DEBFCDBF11E0A0E0B1E0E6E5F1E1B0
:1000D00002C005900D92AE34B107D9F721E0AEE42D
:1000E000B1E001C01D92A937B207E1F710E0CDE5FC
:1000F000D0E004C02197FE010E949E08CC35D107B4
:10010000C9F70E94E9030C94A9080C94000090E040
:10011000FC01EC55FF4F2491FC01E057FF4F349157
:10012000FC01E458FF4FE491EE2309F43CC0222384
:1001300039F1233091F038F42130A9F0223001F563
:1001400084B58F7D12C0273091F02830A1F0243083
:10015000B9F4809180008F7D03C0809180008F77FB
:10016000809380000DC084B58F7784BD09C08091D5
:10017000B0008F7703C08091B0008F7D8093B00076
:10018000F0E0EE0FFF1FEE58FF4FA591B4919FB71F
:10019000F894611104C08C913095382302C0EC9121
:1001A0003E2B3C939FBF0895CF93DF9390E0FC01DB
:1001B000E057FF4F2491FC01E458FF4F84918823BE
:1001C00061F190E0880F991FFC01E859FF4FC5913C
:1001D000D491FC01EE58FF4FA591B491611109C073
:1001E0009FB7F8948881209582238883EC912E23F1
:1001F0000BC0623061F49FB7F8948881322F30953C
:1002000083238883EC912E2B2C939FBF06C08FB73E
:10021000F894E8812E2B28838FBFDF91CF9108952A
:1002200060E084E00E94870060E08BE00E9487002D
:1002300084E08093810010928500109284000895DC
:1002400080915201909153010196909353018093B4
:10025000520108950895CF92DF92EF92FF920F938B
:100260001F93CF93DF936C017A018B01C0E0D0E044
:10027000CE15DF0581F0D8016D918D01D601ED918C
:10028000FC910190F081E02DC6010995892B11F0B8
:100290002196EECF7E01C701DF91CF911F910F9183
:1002A000FF90EF90DF90CF900895CF93DF93EC0114
:1002B00060E08E810E94870061E08E810E9487004D
:1002C00060E08E810E9487008BE891E00197F1F752
:1002D000DF91CF910895CF92DF92EF92FF920F932B
:1002E0001F93CF93DF936C017C0187E0E80EF11C34
:1002F000C0E0D0E0062F10E0B8010C2E02C07595CA
:1003000067950A94E2F76170F70181917F010E947D
:1003100087002196C430D10579F7C601DF91CF91CE
:100320001F910F91FF90EF90DF90CF900C945501AB
:10033000CF92DF92EF92FF920F931F93CF93DF93B1
:10034000EC01F62E642F8C810E9487008D818F3FF7
:1003500019F060E00E9487008F850F2D10E084FF68
:1003600025C06E0187E0C80ED11CE12CF12CB8012C
:100370000E2C02C0759567950A94E2F76170F6013C
:1003800081916F010E948700FFEFEF1AFF0A88E05A
:10039000E816F10461F7CE01DF91CF911F910F9123
:1003A000FF90EF90DF90CF900C945501B80184E05E
:1003B000759567958A95E1F7CE010E946B016F2DC7
:1003C000CE01DF91CF911F910F91FF90EF90DF90C1
:1003D000CF900C946B0140E0682F81E691E00C9483
:1003E000980181E00E94EB018BE39FE10197F1F717
:1003F0000895CF93DF93823028F090917001986038
:1004000090937001809374011092750180E4809341
:10041000760180E18093770180E58093780161E047
:10042000809165010E94D400809166018F3F19F090
:1004300061E00E94D40061E0809167010E94D400D5
:10044000C1E6D1E09E01215631408091700184FDCA
:1004500003C084E090E002C088E090E02196281775
:1004600039072CF461E08E810E94D400EBCF8BE33E
:100470009DE00197F1F760E0809165010E9487009F
:1004800060E0809167010E948700809166018F3F44
:1004900019F060E00E9487008091700184FD20C007
:1004A00063E081E691E00E946B01CBE4D6E4CE01EB
:1004B0000197F1F763E081E691E00E946B012197DB
:1004C000F1F763E081E691E00E946B0183E592E041
:1004D0000197F1F762E081E691E00E946B0115C09F
:1004E00080620E94EB018BE496E40197F1F7809122
:1004F000700180620E94EB0183E592E00197F1F7C1
:100500008091700180620E94EB0180917001806295
:100510000E94EB0184E0809371018CE00E94EB016A
:100520000E94F10182E08093720186E0DF91CF9119
:100530000C94EB0141E00E94980181E090E0089565
:10054000089580E090E00895009769F0FC01019023
:100550000020E9F73197AF01481B590BBC0181E638
:1005600091E00C942B0180E090E008958F929F928F
:10057000AF92BF920F931F93CF93DF93CDB7DEB7A8
:10058000A1970FB6F894DEBF0FBECDBF19A24230BF
:1005900008F44AE08E010F5D1F4F842E912CA12C90
:1005A000B12CA50194010E942A06E62FB901CA01C7
:1005B00001501109EA3014F4E05D01C0E95CD80192
:1005C000EC93232B242B252B61F7C8010E94A40256
:1005D000A1960FB6F894DEBF0FBECDBFDF91CF91CD
:1005E0001F910F91BF90AF909F908F9008950E94A0
:1005F000A4081F920F920FB60F9211242F933F93CE
:100600008F939F93AF93BF9380915D0190915E0113
:10061000A0915F01B091600130915C0123E0230F54
:100620002D3720F40196A11DB11D05C026E8230F2A
:100630000296A11DB11D20935C0180935D019093F2
:100640005E01A0935F01B093600180915801909189
:100650005901A0915A01B0915B010196A11DB11DF4
:100660008093580190935901A0935A01B0935B0174
:10067000BF91AF919F918F913F912F910F900FBE9E
:100680000F901F9018951F920F920FB60F92112482
:100690002F933F934F935F936F937F938F939F938A
:1006A000AF93BF93EF93FF93E0910201F0910301A9
:1006B0000995FF91EF91BF91AF919F918F917F919C
:1006C0006F915F914F913F912F910F900FBE0F90BF
:1006D0001F9018951F920F920FB60F9211242F930F
:1006E0003F934F935F936F937F938F939F93AF93BA
:1006F000BF93EF93FF93E0910001F0910101099501
:10070000FF91EF91BF91AF919F918F917F916F91E9
:100710005F914F913F912F910F900FBE0F901F90BF
:1007200018951F920F920FB60F9211242F933F939B
:100730004F935F936F937F938F939F93AF93BF93E9
:10074000EF93FF9360E08BE00E948700109281009E
:10075000FF91EF91BF91AF919F918F917F916F9199
:100760005F914F913F912F910F900FBE0F901F906F
:1007700018951F920F920FB60F9211242F933F934B
:100780004F935F936F937F938F939F93AF93BF9399
:10079000EF93FF9361E084E00E94870061E08BE0CB
:1007A0000E9487008AEB9FEF9093850080938400DE
:1007B000FF91EF91BF91AF919F918F917F916F9139
:1007C0005F914F913F912F910F900FBE0F901F900F
:1007D0001895789484B5826084BD84B5816084BDA9
:1007E00085B5826085BD85B5816085BD80916E00CF
:1007F000816080936E001092810080918100826000
:10080000809381008091810081608093810080913C
:1008100080008160809380008091B100846080932B
:10082000B1008091B00081608093B00080917A0027
:10083000846080937A0080917A00826080937A004D
:1008400080917A00816080937A0080917A0080683C
:1008500080937A001092C10061E084E00E94D4008D
:1008600061E08BE00E94D40060E083E10E94D4004C
:1008700060E082E00E94D40062E083E00E94D40045
:1008800080E191E0909301018093000180916900E3
:100890008C7F826080936900E89A80E291E0909377
:1008A000030180930201809169008C60809369004C
:1008B000E99A83E080936F0010928000109281008B
:1008C00082E00E94F90180E191E00E94A402E0919F
:1008D0007401E23010F4E15001C0E1E0F0E0EF59C2
:1008E000FE4F848980680E94EB0181E291E00E94C2
:1008F000A4020E94F10115E488EE882E83E0982E70
:10090000A12CB12CC0E0D0E02FB7F89480915D010C
:1009100090915E01A0915F01B09160012FBF409165
:1009200054015091550160915601709157016C012D
:100930007D01C41AD50AE60AF70A24EFC21621E09F
:10094000D206E104F10408F442C18093540190936B
:100950005501A0935601B0935701609152017091D7
:100960005301072E000C880B990B0E94700720E0A2
:1009700030E040E250E40E9425086B017C011092B7
:100980005301109252010E94F101E0917401E23092
:1009900010F4E15001C0E1E0F0E0EF59FE4F84892E
:1009A00080680E94EB0182E391E00E94A402A7010B
:1009B0009601C701B6010E949208882319F089E3C5
:1009C00091E01AC026013701E89477F82FEF3FEF46
:1009D0004FE75FE7C301B2010E94920881110FC087
:1009E0002FEF3FEF4FE75FE7C301B2010E94C80658
:1009F00018162CF48DE391E00E94A40278C02FEF2A
:100A00003FEF4FE75FE4C701B6010E9420081816C8
:100A10001CF481E491E0F0CF2FEF3FEF4FE75FEC64
:100A2000C701B6010E94C80687FDF3CF20E030E081
:100A3000A901C701B6010E94C80687FF0AC041E0AC
:100A40006DE281E691E00E949801F7FAF094F7F8E0
:100A5000F0942AE037ED43EA5BE3C701B6010E9458
:100A60005C062B013C010E943F076B017C010E9448
:100A70006E079B01AC01C301B2010E945B062B0112
:100A80003C014AE0C701B6010E94B60241E06EE2B5
:100A900081E691E00E94980120E030E040E251E4DC
:100AA000C301B2010E9425082B013C010E943F07AF
:100AB0006B01E12CF12C4AE0C701B6010E94B6029D
:100AC000C701B6010E946E079B01AC01C301B201D0
:100AD0000E945B0620E030E040E251E40E942508DD
:100AE0000E943F0780E090E04AE00E94B602109327
:100AF0007C0080917A00806480937A0080917A00F3
:100B000086FDFCCF809178002091790090E0922BB7
:100B10009093510180935001609150017091510167
:100B2000072E000C880B990B0E9470072DEC3CECF3
:100B30004CEC5FE30E94CD0620E030E040E85FE34C
:100B40000E945C060E943F077093890060938800B2
:100B5000A0915001B091510124EB30E00E94970820
:100B6000A50194010E940B0630934F0120934E0182
:100B7000E1E0809174018111E0E0E195F0E0EF594E
:100B8000FE4F848980680E94EB0185E491E00E9419
:100B9000A402C0904E01D0904F010D2C000CEE0825
:100BA000FF08F7FE0FC041E06DE281E691E00E9490
:100BB000980166277727CB016C197D098E099F095B
:100BC0004AE003C04AE0C701B6010E94B60220977E
:100BD00009F49ACE0E94000097CEE1E6F1E013827C
:100BE000128288E091E09183808387E084838FEF95
:100BF000858386E0868385E087838AE0808789E035
:100C0000818788E082871386148615861686178664
:100C100081E00C94F901052E97FB1EF400940E94CC
:100C2000220657FD07D00E942A0607FC03D04EF487
:100C30000C94220650954095309521953F4F4F4F8B
:100C40005F4F089590958095709561957F4F8F4F78
:100C50009F4F0895A1E21A2EAA1BBB1BFD010DC0D8
:100C6000AA1FBB1FEE1FFF1FA217B307E407F5075C
:100C700020F0A21BB30BE40BF50B661F771F881F38
:100C8000991F1A9469F760957095809590959B01CE
:100C9000AC01BD01CF010895A29FB001B39FC00177
:100CA000A39F700D811D1124911DB29F700D811D98
:100CB0001124911D08955058BB27AA270E9473063E
:100CC0000C94E6070E94D80738F00E94DF0720F056
:100CD00039F49F3F19F426F40C94D5070EF4E095EF
:100CE000E7FB0C94CF07E92F0E94F70758F3BA17D8
:100CF000620773078407950720F079F4A6F50C9432
:100D000019080EF4E0950B2EBA2FA02D0B01B90196
:100D100090010C01CA01A0011124FF27591B99F071
:100D2000593F50F4503E68F11A16F040A22F232F7D
:100D3000342F4427585FF3CF469537952795A795CD
:100D4000F0405395C9F77EF41F16BA0B620B730B74
:100D5000840BBAF09150A1F0FF0FBB1F661F771FE5
:100D6000881FC2F70EC0BA0F621F731F841F48F49A
:100D7000879577956795B795F7959E3F08F0B0CF23
:100D80009395880F08F09927EE0F9795879508950A
:100D90000E94AB0708F481E008950E94E1060C94DC
:100DA000E6070E94DF0758F00E94D80740F029F4B8
:100DB0005F3F29F00C94CF0751110C941A080C9442
:100DC000D5070E94F70768F39923B1F3552391F3F0
:100DD000951B550BBB27AA2762177307840738F0AA
:100DE0009F5F5F4F220F331F441FAA1FA9F335D007
:100DF0000E2E3AF0E0E832D091505040E695001CBB
:100E0000CAF72BD0FE2F29D0660F771F881FBB1F74
:100E1000261737074807AB07B0E809F0BB0B802D52
:100E2000BF01FF2793585F4F3AF09E3F510578F07E
:100E30000C94CF070C941A085F3FE4F3983ED4F368
:100E4000869577956795B795F7959F5FC9F7880F52
:100E5000911D9695879597F90895E1E0660F771FA4
:100E6000881FBB1F621773078407BA0720F0621B35
:100E7000730B840BBA0BEE1F88F7E09508950E9460
:100E8000FF0788F09F5798F0B92F9927B751B0F016
:100E9000E1F0660F771F881F991F1AF0BA95C9F7FE
:100EA00014C0B13091F00E941908B1E008950C947B
:100EB0001908672F782F8827B85F39F0B93FCCF32E
:100EC000869577956795B395D9F73EF4909580957B
:100ED000709561957F4F8F4F9F4F0895E89409C09B
:100EE00097FB3EF490958095709561957F4F8F4F5D
:100EF0009F4F9923A9F0F92F96E9BB279395F69573
:100F0000879577956795B795F111F8CFFAF4BB0FF0
:100F100011F460FF1BC06F5F7F4F8F4F9F4F16C054
:100F2000882311F096E911C0772321F09EE8872FDE
:100F3000762F05C0662371F096E8862F70E060E09A
:100F40002AF09A95660F771F881FDAF7880F969513
:100F5000879597F90895990F0008550FAA0BE0E8B7
:100F6000FEEF16161706E807F907C0F0121613066B
:100F7000E407F50798F0621B730B840B950B39F4AB
:100F80000A2661F0232B242B252B21F408950A2611
:100F900009F4A140A6958FEF811D811D089597F951
:100FA0009F6780E870E060E008959FEF80EC08950F
:100FB00000240A9416161706180609060895002438
:100FC0000A9412161306140605060895092E0394B2
:100FD000000C11F4882352F0BB0F40F4BF2B11F426
:100FE00060FF04C06F5F7F4F8F4F9F4F089557FD85
:100FF0009058440F551F59F05F3F71F04795880F87
:1010000097FB991F61F09F3F79F08795089512161D
:1010100013061406551FF2CF4695F1DF08C01616C9
:1010200017061806991FF1CF86957105610508947A
:101030000895E894BB2766277727CB0197F9089591
:101040000E94AB0708F48FEF08950E9438080C94B3
:10105000E6070E94D80738F00E94DF0720F09523AA
:1010600011F00C94CF070C94D50711240C941A0896
:101070000E94F70770F3959FC1F3950F50E0551F3D
:10108000629FF001729FBB27F00DB11D639FAA27DD
:10109000F00DB11DAA1F649F6627B00DA11D661F2C
:1010A000829F2227B00DA11D621F739FB00DA11D4D
:1010B000621F839FA00D611D221F749F3327A00D07
:1010C000611D231F849F600D211D822F762F6A2FA3
:1010D00011249F5750409AF0F1F088234AF0EE0F08
:1010E000FF1FBB1F661F771F881F91505040A9F735
:1010F0009E3F510580F00C94CF070C941A085F3F77
:10110000E4F3983ED4F3869577956795B795F79570
:10111000E7959F5FC1F7FE2B880F911D96958795E8
:1011200097F908950E94AB07880B990B08950E94C8
:101130004C06B7FF0895821B930B0895EE0FFF1F17
:101140000590F491E02D099481E090E0F8940C94DE
:06115000A908F894FFCF8E
:101156002A012A01000000009A022B01A102A00226
:1011660020202020202049544E59202020202020B5
:1011760000202020594F4759414B415254412020CD
:10118600200052504D203D20006E616E00696E6653
:0E119600006F7666005355445554203D2000EE
:107E0000112484B714BE81FFF0D085E080938100F7
:107E100082E08093C00088E18093C10086E0809377
:107E2000C20080E18093C4008EE0C9D0259A86E02C
:107E300020E33CEF91E0309385002093840096BBD3
:107E4000B09BFECF1D9AA8958150A9F7CC24DD24C4
:107E500088248394B5E0AB2EA1E19A2EF3E0BF2EE7
:107E6000A2D0813461F49FD0082FAFD0023811F036
:107E7000013811F484E001C083E08DD089C08234E0
:107E800011F484E103C0853419F485E0A6D080C0E4
:107E9000853579F488D0E82EFF2485D0082F10E0AE
:107EA000102F00270E291F29000F111F8ED06801E7
:107EB0006FC0863521F484E090D080E0DECF843638
:107EC00009F040C070D06FD0082F6DD080E0C81688
:107ED00080E7D80618F4F601B7BEE895C0E0D1E017
:107EE00062D089930C17E1F7F0E0CF16F0E7DF06D8
:107EF00018F0F601B7BEE89568D007B600FCFDCFD4
:107F0000A601A0E0B1E02C9130E011968C91119780
:107F100090E0982F8827822B932B1296FA010C0160
:107F200087BEE89511244E5F5F4FF1E0A038BF0790
:107F300051F7F601A7BEE89507B600FCFDCF97BE46
:107F4000E89526C08437B1F42ED02DD0F82E2BD052
:107F50003CD0F601EF2C8F010F5F1F4F84911BD097
:107F6000EA94F801C1F70894C11CD11CFA94CF0C13
:107F7000D11C0EC0853739F428D08EE10CD085E9AC
:107F80000AD08FE07ACF813511F488E018D01DD067
:107F900080E101D065CF982F8091C00085FFFCCF94
:107FA0009093C60008958091C00087FFFCCF809118
:107FB000C00084FD01C0A8958091C6000895E0E648
:107FC000F0E098E1908380830895EDDF803219F02E
:107FD00088E0F5DFFFCF84E1DECF1F93182FE3DFCA
:107FE0001150E9F7F2DF1F91089580E0E8DFEE27F6
:047FF000FF270994CA
:027FFE00040479
:0400000300007E007B
:00000001FF
