:100000000C945D000C946A030C9443030C948500DB
:100010000C9485000C9485000C9485000C9485004C
:100020000C9485000C9485000C9485000C9485003C
:100030000C9485000C9491030C9485000C9485001D
:100040000C94F9020C9485000C9485000C948500A6
:100050000C9485000C9485000C9485000C9485000C
:100060000C9485000C9485000000000024002700FB
:100070002A0000000000250028002B0004040404CE
:100080000404040402020202020203030303030342
:10009000010204081020408001020408102001021F
:1000A00004081020000000080002010000030407FB
:1000B00000000000000000002F0611241FBECFEF3B
:1000C000D8E0DEBFCDBF11E0A0E0B1E0E6EFF0E1A7
:1000D00002C005900D92AE33B107D9F721E0AEE32F
:1000E000B1E001C01D92AD36B207E1F710E0CDE5F9
:1000F000D0E004C02197FE010E946E08CC35D107E4
:10010000C9F70E94B8030C9479080C94000090E0A1
:10011000FC01EC55FF4F2491FC01E057FF4F349157
:10012000FC01E458FF4FE491EE2309F43CC0222384
:1001300039F1233091F038F42130A9F0223001F563
:1001400084B58F7D12C0273091F02830A1F0243083
:10015000B9F4809180008F7D03C0809180008F77FB
:10016000809380000DC084B58F7784BD09C08091D5
:10017000B0008F7703C08091B0008F7D8093B00076
:10018000F0E0EE0FFF1FEE58FF4FA591B4919FB71F
:10019000F894611104C08C913095382302C0EC9121
:1001A0003E2B3C939FBF0895CF93DF9390E0FC01DB
:1001B000E057FF4F2491FC01E458FF4F84918823BE
:1001C00061F190E0880F991FFC01E859FF4FC5913C
:1001D000D491FC01EE58FF4FA591B491611109C073
:1001E0009FB7F8948881209582238883EC912E23F1
:1001F0000BC0623061F49FB7F8948881322F30953C
:1002000083238883EC912E2B2C939FBF06C08FB73E
:10021000F894E8812E2B28838FBFDF91CF9108952A
:1002200080914601909147010196909347018093F8
:10023000460108950895CF92DF92EF92FF920F93B7
:100240001F93CF93DF936C017A018B01C0E0D0E064
:10025000CE15DF0581F0D8016D918D01D601ED91AC
:10026000FC910190F081E02DC6010995892B11F0D8
:100270002196EECF7E01C701DF91CF911F910F91A3
:10028000FF90EF90DF90CF900895CF93DF93EC0134
:1002900060E08E810E94870061E08E810E9487006D
:1002A00060E08E810E9487008BE891E00197F1F772
:1002B000DF91CF910895CF92DF92EF92FF920F934B
:1002C0001F93CF93DF936C017C0187E0E80EF11C54
:1002D000C0E0D0E0062F10E0B8010C2E02C07595EA
:1002E00067950A94E2F76170F70181917F010E949E
:1002F00087002196C430D10579F7C601DF91CF91EF
:100300001F910F91FF90EF90DF90CF900C944501DB
:10031000CF92DF92EF92FF920F931F93CF93DF93D1
:10032000EC01F62E642F8C810E9487008D818F3F17
:1003300019F060E00E9487008F850F2D10E084FF88
:1003400025C06E0187E0C80ED11CE12CF12CB8014C
:100350000E2C02C0759567950A94E2F76170F6015C
:1003600081916F010E948700FFEFEF1AFF0A88E07A
:10037000E816F10461F7CE01DF91CF911F910F9143
:10038000FF90EF90DF90CF900C944501B80184E08E
:10039000759567958A95E1F7CE010E945B016F2DF7
:1003A000CE01DF91CF911F910F91FF90EF90DF90E1
:1003B000CF900C945B0140E0682F85E591E00C94B0
:1003C0008801CF93DF93823028F090916401986088
:1003D00090936401809368011092690180E4809396
:1003E0006A0180E180936B0180E580936C0161E09C
:1003F000809159010E94D40080915A018F3F19F0D9
:1004000061E00E94D40061E080915B010E94D40011
:10041000C5E5D1E09E01255531408091640184FD00
:1004200003C084E090E002C088E090E021962817A5
:1004300039072CF461E08E810E94D400EBCF8BE36E
:100440009DE00197F1F760E0809159010E948700DB
:1004500060E080915B010E94870080915A018F3F8C
:1004600019F060E00E9487008091640184FD20C043
:1004700063E085E591E00E945B01CBE4D6E4CE0128
:100480000197F1F763E085E591E00E945B01219718
:10049000F1F763E085E591E00E945B0183E592E07E
:1004A0000197F1F762E085E591E00E945B0115C0DC
:1004B00080620E94DB018BE496E40197F1F7809162
:1004C000640180620E94DB0183E592E00197F1F70D
:1004D0008091640180620E94DB01809164018062EE
:1004E0000E94DB0184E0809365018CE00E94DB01C7
:1004F00081E00E94DB018BE39FE10197F1F782E04D
:100500008093660186E0DF91CF910C94DB0141E09E
:100510000E94880181E090E00895089580E090E0D5
:100520000895009769F0FC0101900020E9F73197E8
:10053000AF01481B590BBC0185E591E00C941B01F0
:1005400080E090E008958F929F92AF92BF920F93B8
:100550001F93CF93DF93CDB7DEB7A1970FB6F89473
:10056000DEBF0FBECDBF19A2423008F44AE08E01B3
:100570000F5D1F4F842E912CA12CB12CA50194014D
:100580000E946C06E62FB901CA0101501109EA3038
:1005900014F4E05D01C0E95CD801EC93232B242B1B
:1005A000252B61F7C8010E949102A1960FB6F8941D
:1005B000DEBF0FBECDBFDF91CF911F910F91BF90D6
:1005C000AF909F908F900895E1E8F0E08081887F60
:1005D000808361E084E00E9487008FE891E00197CA
:1005E000F1F700C0000060E084E00C9487000E94F6
:1005F00074081F920F920FB60F9211242F933F93FE
:100600008F939F93AF93BF9380915101909152012B
:10061000A0915301B09154013091500123E0230F78
:100620002D3720F40196A11DB11D05C026E8230F2A
:100630000296A11DB11D209350018093510190930A
:100640005201A0935301B093540180914C019091B9
:100650004D01A0914E01B0914F010196A11DB11D18
:1006600080934C0190934D01A0934E01B0934F01A4
:10067000BF91AF919F918F913F912F910F900FBE9E
:100680000F901F9018951F920F920FB60F92112482
:100690002F933F934F935F936F937F938F939F938A
:1006A000AF93BF93EF93FF93E0910201F0910301A9
:1006B0000995FF91EF91BF91AF919F918F917F919C
:1006C0006F915F914F913F912F910F900FBE0F90BF
:1006D0001F9018951F920F920FB60F9211242F930F
:1006E0003F934F935F936F937F938F939F93AF93BA
:1006F000BF93EF93FF93E0910001F0910101099501
:10070000FF91EF91BF91AF919F918F917F916F91E9
:100710005F914F913F912F910F900FBE0F901F90BF
:1007200018951F920F920FB60F9211242F933F939B
:100730004F935F936F937F938F939F93AF93BF93E9
:10074000EF93FF93E0914201F09143010995FF91EE
:10075000EF91BF91AF919F918F917F916F915F9139
:100760004F913F912F910F900FBE0F901F901895B2
:10077000789484B5826084BD84B5816084BD85B57C
:10078000826085BD85B5816085BD80916E00816088
:1007900080936E001092810080918100826080932E
:1007A0008100809181008160809381008091800030
:1007B0008160809380008091B10084608093B1005B
:1007C0008091B00081608093B00080917A00846055
:1007D00080937A0080917A00826080937A00809181
:1007E0007A00816080937A0080917A00806880939B
:1007F0007A001092C10061E084E00E94D40060E0C1
:100800008EE00E94D40060E082E00E94D40062E0AA
:1008100083E00E94D40084EE92E0909301018093E3
:10082000000180916900836080936900E89A80E10B
:1008300091E09093030180930201809169008C60A4
:1008400080936900E99A1092800080E18093810092
:1008500082E0809340018FB780934101F89480E259
:100860009EE490933F0180933E0190938700809394
:100870008600809141018FBF80918100887F8093A5
:1008800081009091810080914001892B80938100AB
:1008900080918100887F8093810082E00E94E10145
:1008A00080E191E00E94910288248A94B3E09B2E1B
:1008B000A12CB12CC0E0D0E015E0F4E02F2EA3E095
:1008C0003A2E02E02FB7F894809151019091520195
:1008D000A0915301B09154012FBF40914801509114
:1008E000490160914A0170914B016C017D01C41A6C
:1008F000D50AE60AF70A24EFC21621E0D206E1047F
:10090000F10408F4A6C18093480190934901A09393
:100910004A01B0934B016091460170914701072E47
:10092000000C880B990B0E94400720E030E040E269
:1009300050E40E94F5076B017C0110924701109270
:100940004601E0916801E23010F4E15001C0E1E0BD
:10095000F0E0EB5AFE4F848980680E94DB0181E25F
:1009600091E00E949102A7019601C701B6010E9481
:100970006208882319F088E291E01AC02601370145
:10098000E89477F82FEF3FEF4FE75FE7C301B2013D
:100990000E94620881110FC02FEF3FEF4FE75FE722
:1009A000C301B2010E940A0718162CF48CE291E0F0
:1009B0000E94910278C02FEF3FEF4FE75FE4C7013D
:1009C000B6010E94F00718161CF480E391E0F0CF06
:1009D0002FEF3FEF4FE75FECC701B6010E940A0718
:1009E00087FDF3CF20E030E0A901C701B6010E94E6
:1009F0000A0787FF0AC041E06DE285E591E00E94A9
:100A00008801F7FAF094F7F8F0942AE037ED43EA1A
:100A10005BE3C701B6010E949E062B013C010E94C8
:100A20000F076B017C010E943E079B01AC01C301D3
:100A3000B2010E949D062B013C014AE0C701B601AC
:100A40000E94A30241E06EE285E591E00E948801E8
:100A500020E030E040E251E4C301B2010E94F5071A
:100A60002B013C010E940F076B01E12CF12C4AE0A5
:100A7000C701B6010E94A302C701B6010E943E074A
:100A80009B01AC01C301B2010E949D0620E030E051
:100A900040E251E40E94F5070E940F0780E090E0D9
:100AA0004AE00E94A302E1E0809168018111E0E048
:100AB000E195F0E0EB5AFE4F848980680E94DB01EB
:100AC00084E391E00E94910280E480937C00809115
:100AD0007A00806480937A0080917A0086FDFCCF52
:100AE000A091780080917900B0E0B82B809144010A
:100AF000909145018A179B0709F48DC08AE08A9F6F
:100B0000A0018B9F500D11244F5F5F4F109280000A
:100B100060E1C62EC0928100052E000C660B770B9B
:100B2000E3E0440F551F661F771FEA95D1F7411583
:100B3000510521E06207710524F481E080934001B2
:100B400043C033E075956795579547953A95D1F72A
:100B50004115510521E0620771051CF40093400125
:100B600033C023E075956795579547952A95D1F73A
:100B70004115510581E0680771051CF43092400170
:100B800023C092E075956795579547959A95D1F74B
:100B90004115510521E0620771051CF420924001C6
:100BA00013C082E075956795579547958A95D1F75B
:100BB000109340014115510581E06807710524F04B
:100BC0004FEF5FEF60E070E08FB780934101F894E2
:100BD00050933F0140933E0150938700409386001D
:100BE000809141018FBF80918100887F8093810037
:100BF0009091810080914001892B8093810024EBAA
:100C000030E00E946708A50194010E944D063093D0
:100C1000450120934401C0904401D09045010D2C22
:100C2000000CEE08FF08F7FE0FC041E06DE285E51D
:100C300091E00E94880166277727CB016C197D0916
:100C40008E099F094AE003C04AE0C701B6010E942D
:100C5000A302209709F436CE0E9400002ECEE5E5CF
:100C6000F1E01382128288E091E0918380838DE02D
:100C700084838FEF85838CE086838BE087838AE093
:100C8000808789E0818788E08287138614861586AD
:100C90001686178681E00C94E101052E97FB1EF461
:100CA00000940E94640657FD07D00E946C0607FC62
:100CB00003D04EF40C9464065095409530952195E0
:100CC0003F4F4F4F5F4F0895909580957095619578
:100CD0007F4F8F4F9F4F0895A1E21A2EAA1BBB1B77
:100CE000FD010DC0AA1FBB1FEE1FFF1FA217B307F8
:100CF000E407F50720F0A21BB30BE40BF50B661F0E
:100D0000771F881F991F1A9469F7609570958095D1
:100D100090959B01AC01BD01CF010895A29FB00148
:100D2000B39FC001A39F700D811D1124911DB29F1F
:100D3000700D811D1124911D08955058BB27AA27BD
:100D40000E94B5060C94B6070E94A80738F00E94CE
:100D5000AF0720F039F49F3F19F426F40C94A5074F
:100D60000EF4E095E7FB0C949F07E92F0E94C7075C
:100D700058F3BA17620773078407950720F079F4D0
:100D8000A6F50C94E9070EF4E0950B2EBA2FA02DD2
:100D90000B01B90190010C01CA01A0011124FF2728
:100DA000591B99F0593F50F4503E68F11A16F04023
:100DB000A22F232F342F4427585FF3CF4695379522
:100DC0002795A795F0405395C9F77EF41F16BA0BE7
:100DD000620B730B840BBAF09150A1F0FF0FBB1F95
:100DE000661F771F881FC2F70EC0BA0F621F731FDE
:100DF000841F48F4879577956795B795F7959E3F3B
:100E000008F0B0CF9395880F08F09927EE0F9795CB
:100E1000879508950E947B0708F481E008950E9459
:100E2000CF0788F09F5798F0B92F9927B751B0F0A6
:100E3000E1F0660F771F881F991F1AF0BA95C9F75E
:100E400014C0B13091F00E94E907B1E008950C940C
:100E5000E907672F782F8827B85F39F0B93FCCF3BF
:100E6000869577956795B395D9F73EF490958095DB
:100E7000709561957F4F8F4F9F4F0895E89409C0FB
:100E800097FB3EF490958095709561957F4F8F4FBD
:100E90009F4F9923A9F0F92F96E9BB279395F695D3
:100EA000879577956795B795F111F8CFFAF4BB0F51
:100EB00011F460FF1BC06F5F7F4F8F4F9F4F16C0B5
:100EC000882311F096E911C0772321F09EE8872F3F
:100ED000762F05C0662371F096E8862F70E060E0FB
:100EE0002AF09A95660F771F881FDAF7880F969574
:100EF000879597F90895990F0008550FAA0BE0E818
:100F0000FEEF16161706E807F907C0F012161306CB
:100F1000E407F50798F0621B730B840B950B39F40B
:100F20000A2661F0232B242B252B21F408950A2671
:100F300009F4A140A6958FEF811D811D089597F9B1
:100F40009F6780E870E060E008959FEF80EC08956F
:100F500000240A9416161706180609060895002498
:100F60000A9412161306140605060895092E039412
:100F7000000C11F4882352F0BB0F40F4BF2B11F486
:100F800060FF04C06F5F7F4F8F4F9F4F089557FDE5
:100F90009058440F551F59F05F3F71F04795880FE7
:100FA00097FB991F61F09F3F79F08795089512167E
:100FB00013061406551FF2CF4695F1DF08C016162A
:100FC00017061806991FF1CF8695710561050894DB
:100FD0000895E894BB2766277727CB0197F90895F2
:100FE0000E947B0708F48FEF08950E9408080C9474
:100FF000B6070E94A80738F00E94AF0720F095239B
:1010000011F00C949F070C94A50711240C94EA0787
:101010000E94C70770F3959FC1F3950F50E0551FCD
:10102000629FF001729FBB27F00DB11D639FAA273D
:10103000F00DB11DAA1F649F6627B00DA11D661F8C
:10104000829F2227B00DA11D621F739FB00DA11DAD
:10105000621F839FA00D611D221F749F3327A00D67
:10106000611D231F849F600D211D822F762F6A2F03
:1010700011249F5750409AF0F1F088234AF0EE0F68
:10108000FF1FBB1F661F771F881F91505040A9F795
:101090009E3F510580F00C949F070C94EA075F3F38
:1010A000E4F3983ED4F3869577956795B795F795D1
:1010B000E7959F5FC1F7FE2B880F911D9695879549
:1010C00097F908950E947B07880B990B08950E9459
:1010D0008E06B7FF0895821B930B0895EE0FFF1F36
:1010E0000590F491E02D099481E090E0F8940C943F
:0610F0007908F894FFCF1F
:1010F6001A011A010000000087021B018E028D02F0
:101106003D3D3D3D3D3D49544E593D3D3D3D3D3DB9
:101116000052504D203D20006E616E00696E6600E3
:0E1126006F7666005355445554203D2000005E
:107E0000112484B714BE81FFF0D085E080938100F7
:107E100082E08093C00088E18093C10086E0809377
:107E2000C20080E18093C4008EE0C9D0259A86E02C
:107E300020E33CEF91E0309385002093840096BBD3
:107E4000B09BFECF1D9AA8958150A9F7CC24DD24C4
:107E500088248394B5E0AB2EA1E19A2EF3E0BF2EE7
:107E6000A2D0813461F49FD0082FAFD0023811F036
:107E7000013811F484E001C083E08DD089C08234E0
:107E800011F484E103C0853419F485E0A6D080C0E4
:107E9000853579F488D0E82EFF2485D0082F10E0AE
:107EA000102F00270E291F29000F111F8ED06801E7
:107EB0006FC0863521F484E090D080E0DECF843638
:107EC00009F040C070D06FD0082F6DD080E0C81688
:107ED00080E7D80618F4F601B7BEE895C0E0D1E017
:107EE00062D089930C17E1F7F0E0CF16F0E7DF06D8
:107EF00018F0F601B7BEE89568D007B600FCFDCFD4
:107F0000A601A0E0B1E02C9130E011968C91119780
:107F100090E0982F8827822B932B1296FA010C0160
:107F200087BEE89511244E5F5F4FF1E0A038BF0790
:107F300051F7F601A7BEE89507B600FCFDCF97BE46
:107F4000E89526C08437B1F42ED02DD0F82E2BD052
:107F50003CD0F601EF2C8F010F5F1F4F84911BD097
:107F6000EA94F801C1F70894C11CD11CFA94CF0C13
:107F7000D11C0EC0853739F428D08EE10CD085E9AC
:107F80000AD08FE07ACF813511F488E018D01DD067
:107F900080E101D065CF982F8091C00085FFFCCF94
:107FA0009093C60008958091C00087FFFCCF809118
:107FB000C00084FD01C0A8958091C6000895E0E648
:107FC000F0E098E1908380830895EDDF803219F02E
:107FD00088E0F5DFFFCF84E1DECF1F93182FE3DFCA
:107FE0001150E9F7F2DF1F91089580E0E8DFEE27F6
:047FF000FF270994CA
:027FFE00040479
:0400000300007E007B
:00000001FF
