:100000000C945D000C9466030C943F030C948500E3
:100010000C9485000C9485000C9485000C9485004C
:100020000C9485000C9485000C9485000C94B50309
:100030000C9485000C948D030C9485000C94850021
:100040000C94F5020C9485000C9485000C948500AA
:100050000C9485000C9485000C9485000C9485000C
:100060000C9485000C9485000000000024002700FB
:100070002A0000000000250028002B0004040404CE
:100080000404040402020202020203030303030342
:10009000010204081020408001020408102001021F
:1000A00004081020000000080002010000030407FB
:1000B0000000000000000000EF0511241FBECFEF7C
:1000C000D8E0DEBFCDBF11E0A0E0B1E0ECE0F0E1B0
:1000D00002C005900D92AE34B107D9F721E0AEE42D
:1000E000B1E001C01D92A138B207E1F710E0CDE503
:1000F000D0E004C02197FE010E94F907CC35D1075A
:10010000C9F70E94E5030C9404080C94000090E0E9
:10011000FC01EC55FF4F2491FC01E057FF4F349157
:10012000FC01E458FF4FE491EE2309F43CC0222384
:1001300039F1233091F038F42130A9F0223001F563
:1001400084B58F7D12C0273091F02830A1F0243083
:10015000B9F4809180008F7D03C0809180008F77FB
:10016000809380000DC084B58F7784BD09C08091D5
:10017000B0008F7703C08091B0008F7D8093B00076
:10018000F0E0EE0FFF1FEE58FF4FA591B4919FB71F
:10019000F894611104C08C913095382302C0EC9121
:1001A0003E2B3C939FBF0895CF93DF9390E0FC01DB
:1001B000E057FF4F2491FC01E458FF4F84918823BE
:1001C00061F190E0880F991FFC01E859FF4FC5913C
:1001D000D491FC01EE58FF4FA591B491611109C073
:1001E0009FB7F8948881209582238883EC912E23F1
:1001F0000BC0623061F49FB7F8948881322F30953C
:1002000083238883EC912E2B2C939FBF06C08FB73E
:10021000F894E8812E2B28838FBFDF91CF9108952A
:1002200060E084E00E94870084E080938100109267
:1002300085001092840008958091500190915101A1
:100240000196909351018093500108950895CF92A3
:10025000DF92EF92FF920F931F93CF93DF936C0186
:100260007A018B01C0E0D0E0CE15DF0581F0D80126
:100270006D918D01D601ED91FC910190F081E02D01
:10028000C6010995892B11F02196EECF7E01C70199
:10029000DF91CF911F910F91FF90EF90DF90CF9062
:1002A0000895CF93DF93EC0160E08E810E94870078
:1002B00061E08E810E94870060E08E810E9487004D
:1002C0008BE891E00197F1F7DF91CF910895CF92FC
:1002D000DF92EF92FF920F931F93CF93DF936C0106
:1002E0007C0187E0E80EF11CC0E0D0E0062F10E0B2
:1002F000B8010C2E02C0759567950A94E2F76170FB
:10030000F70181917F010E9487002196C430D105B9
:1003100079F7C601DF91CF911F910F91FF90EF9078
:10032000DF90CF900C945101CF92DF92EF92FF9229
:100330000F931F93CF93DF93EC01F62E642F8C81E4
:100340000E9487008D818F3F19F060E00E94870036
:100350008F850F2D10E084FF25C06E0187E0C80E49
:10036000D11CE12CF12CB8010E2C02C075956795BB
:100370000A94E2F76170F60181916F010E94870093
:10038000FFEFEF1AFF0A88E0E816F10461F7CE01EB
:10039000DF91CF911F910F91FF90EF90DF90CF9061
:1003A0000C945101B80184E0759567958A95E1F741
:1003B000CE010E9467016F2DCE01DF91CF911F9179
:1003C0000F91FF90EF90DF90CF900C94670140E089
:1003D000682F89E691E00C94940181E00E94E70186
:1003E0008BE39FE10197F1F70895CF93DF9382307C
:1003F00028F09091780198609093780180937C0127
:1004000010927D0180E480937E0180E180937F01E2
:1004100080E58093800161E080916D010E94D400AD
:1004200080916E018F3F19F061E00E94D40061E07D
:1004300080916F010E94D400C9E6D1E09E01295647
:1004400031408091780184FD03C084E090E002C0D7
:1004500088E090E02196281739072CF461E08E811E
:100460000E94D400EBCF8BE39DE00197F1F760E0B1
:1004700080916D010E94870060E080916F010E9471
:10048000870080916E018F3F19F060E00E94870025
:100490008091780184FD20C063E089E691E00E94AC
:1004A0006701CBE4D6E4CE010197F1F763E089E67A
:1004B00091E00E9467012197F1F763E089E691E0FE
:1004C0000E94670183E592E00197F1F762E089E617
:1004D00091E00E94670115C080620E94E7018BE4F1
:1004E00096E40197F1F78091780180620E94E7011C
:1004F00083E592E00197F1F78091780180620E9494
:10050000E7018091780180620E94E70184E0809396
:1005100079018CE00E94E7010E94ED0182E0809366
:100520007A0186E0DF91CF910C94E70141E00E94CF
:10053000940181E090E00895089580E090E00895AE
:10054000009769F0FC0101900020E9F73197AF01B5
:10055000481B590BBC0189E691E00C94270180E00F
:1005600090E008958F929F92AF92BF920F931F9346
:10057000CF93DF93CDB7DEB7A1970FB6F894DEBF68
:100580000FBECDBF19A2423008F44AE08E010F5DC4
:100590001F4F842E912CA12CB12CA50194010E94F7
:1005A000D707E62FB901CA0101501109EA3014F446
:1005B000E05D01C0E95CD801EC93232B242B252BB3
:1005C00061F7C8010E94A002A1960FB6F894DEBFA1
:1005D0000FBECDBFDF91CF911F910F91BF90AF9014
:1005E0009F908F9008950E94FF071F920F920FB661
:1005F0000F9211242F933F938F939F93AF93BF93A9
:100600008091650190916601A0916701B0916801A8
:100610003091640123E0230F2D3720F40196A11DB2
:10062000B11D05C026E8230F0296A11DB11D209320
:1006300064018093650190936601A0936701B09374
:1006400068018091600190916101A0916201B09177
:1006500063010196A11DB11D80936001909361011A
:10066000A0936201B0936301BF91AF919F918F916D
:100670003F912F910F900FBE0F901F9018951F92D2
:100680000F920FB60F9211242F933F934F935F93C6
:100690006F937F938F939F93AF93BF93EF93FF934A
:1006A000E0910201F09103010995FF91EF91BF9153
:1006B000AF919F918F917F916F915F914F913F91FA
:1006C0002F910F900FBE0F901F9018951F920F92B1
:1006D0000FB60F9211242F933F934F935F936F9315
:1006E0007F938F939F93AF93BF93EF93FF93E0918B
:1006F0000001F09101010995FF91EF91BF91AF9138
:100700009F918F917F916F915F914F913F912F9129
:100710000F900FBE0F901F9018951F920F920FB65B
:100720000F9211242F933F934F935F936F937F9377
:100730008F939F93AF93BF93EF93FF9360E08BE012
:100740000E94870010928100FF91EF91BF91AF91BD
:100750009F918F917F916F915F914F913F912F91D9
:100760000F900FBE0F901F9018951F920F920FB60B
:100770000F9211242F933F934F935F936F937F9327
:100780008F939F93AF93BF93EF93FF9361E084E0C8
:100790000E94870061E08BE00E9487008CEF9FEF52
:1007A0009093850080938400FF91EF91BF91AF916A
:1007B0009F918F917F916F915F914F913F912F9179
:1007C0000F900FBE0F901F901895789484B582609B
:1007D00084BD84B5816084BD85B5826085BD85B5E5
:1007E000816085BD80916E00816080936E00109263
:1007F00081008091810082608093810080918100DE
:10080000816080938100809180008160809380006E
:100810008091B10084608093B1008091B0008160CC
:100820008093B00080917A00846080937A008091F8
:100830007A00826080937A0080917A008160809350
:100840007A0080917A00806880937A001092C100CB
:1008500061E084E00E94D40061E08BE00E94D4005B
:1008600060E083E10E94D40060E082E00E94D40056
:1008700062E083E00E94D40080E191E09093010166
:1008800080930001809169008C7F82608093690071
:10089000E89A8CE191E090930301809302018091AA
:1008A00069008C6080936900E99A83E080936F000F
:1008B000109280001092810082E00E94F50180E198
:1008C00091E00E94A002E0917C01E23010F4E1503E
:1008D00001C0E1E0F0E0E759FE4F848980680E94A2
:1008E000E70181E291E00E94A0020E94ED0115E47F
:1008F000C0E0D0E02FB7F894809165019091660137
:10090000A0916701B09168012FBF40915C015091A7
:100910005D0160915E0170915F016C017D01C41AFF
:10092000D50AE60AF70A24EFC21621E0D206E1044E
:10093000F10408F44EC180935C0190935D01A09393
:100940005E01B0935F0180915401909155019093A5
:1009500053018093520180915601909157019093D9
:1009600055018093540180915801909159019093C1
:1009700057018093560180915A0190915B019093A9
:1009800059018093580180915001909151019093A9
:100990005B0180935A011092510110925001E2E5DF
:1009A000F1E060E070E081919191680F791F81E042
:1009B000EC35F807C1F777FF02C06F5F7F4F759581
:1009C0006795072E000C880B990B0E94B0066B01EF
:1009D0007C010E94ED01E0917C01E23010F4E150D5
:1009E00001C0E1E0F0E0E759FE4F848980680E9491
:1009F000E70182E391E00E94A002A7019601C701EE
:100A0000B6010E94D207882319F089E391E01AC049
:100A100046015701E894B7F82FEF3FEF4FE75FE744
:100A2000C501B4010E94D20781110FC02FEF3FEF23
:100A30004FE75FE7C501B4010E947A0618162CF44F
:100A40008DE391E00E94A00278C02FEF3FEF4FE7C7
:100A50005FE4C701B6010E94600718161CF481E428
:100A600091E0F0CF2FEF3FEF4FE75FECC701B6010A
:100A70000E947A0687FDF3CF20E030E0A901C7018C
:100A8000B6010E947A0687FF0AC041E06DE289E65E
:100A900091E00E949401F7FAF094F7F8F0942AE0BC
:100AA00037ED43EA5BE3C701B6010E940E064B0136
:100AB0005C010E947F066B017C010E94AE069B01D7
:100AC000AC01C501B4010E940D064B015C014AE076
:100AD000C701B6010E94B20241E06EE289E691E0F0
:100AE0000E94940120E030E040E251E4C501B401ED
:100AF0000E9465074B015C010E947F066B01E12C9F
:100B0000F12C4AE0C701B6010E94B202C701B6014A
:100B10000E94AE069B01AC01C501B4010E940D0606
:100B200020E030E040E251E40E9465070E947F0629
:100B300080E090E04AE00E94B20210937C00809135
:100B40007A00806480937A0080917A0086FDFCCFE1
:100B5000809178002091790090E0922B90934F0142
:100B600080934E0180914E0190914F0190938900A6
:100B700080938800E1E080917C018111E0E0E195C3
:100B8000F0E0E759FE4F848980680E94E70185E420
:100B900091E00E94A002C0904E01D0904F010D2C18
:100BA000000CEE08FF08F7FE0FC041E06DE289E699
:100BB00091E00E94940166277727CB016C197D098B
:100BC0008E099F094AE003C04AE0C701B6010E94AE
:100BD000B202209709F48ECE0E9400008BCEE9E687
:100BE000F1E01382128288E091E09183808387E0B4
:100BF00084838FEF858386E0868385E087838AE020
:100C0000808789E0818788E082871386148615862D
:100C10001686178681E00C94F5015058BB27AA2749
:100C20000E9425060C9426070E94180738F00E949F
:100C30001F0720F039F49F3F19F426F40C94150790
:100C40000EF4E095E7FB0C940F07E92F0E9437079D
:100C500058F3BA17620773078407950720F079F4F1
:100C6000A6F50C9459070EF4E0950B2EBA2FA02D83
:100C70000B01B90190010C01CA01A0011124FF2749
:100C8000591B99F0593F50F4503E68F11A16F04044
:100C9000A22F232F342F4427585FF3CF4695379543
:100CA0002795A795F0405395C9F77EF41F16BA0B08
:100CB000620B730B840BBAF09150A1F0FF0FBB1FB6
:100CC000661F771F881FC2F70EC0BA0F621F731FFF
:100CD000841F48F4879577956795B795F7959E3F5C
:100CE00008F0B0CF9395880F08F09927EE0F9795ED
:100CF000879508950E94EB0608F481E008950E940C
:100D00003F0788F09F5798F0B92F9927B751B0F057
:100D1000E1F0660F771F881F991F1AF0BA95C9F77F
:100D200014C0B13091F00E945907B1E008950C94BD
:100D30005907672F782F8827B85F39F0B93FCCF370
:100D4000869577956795B395D9F73EF490958095FC
:100D5000709561957F4F8F4F9F4F0895E89409C01C
:100D600097FB3EF490958095709561957F4F8F4FDE
:100D70009F4F9923A9F0F92F96E9BB279395F695F4
:100D8000879577956795B795F111F8CFFAF4BB0F72
:100D900011F460FF1BC06F5F7F4F8F4F9F4F16C0D6
:100DA000882311F096E911C0772321F09EE8872F60
:100DB000762F05C0662371F096E8862F70E060E01C
:100DC0002AF09A95660F771F881FDAF7880F969595
:100DD000879597F90895990F0008550FAA0BE0E839
:100DE000FEEF16161706E807F907C0F012161306ED
:100DF000E407F50798F0621B730B840B950B39F42D
:100E00000A2661F0232B242B252B21F408950A2692
:100E100009F4A140A6958FEF811D811D089597F9D2
:100E20009F6780E870E060E008959FEF80EC089590
:100E300000240A94161617061806090608950024B9
:100E40000A9412161306140605060895092E039433
:100E5000000C11F4882352F0BB0F40F4BF2B11F4A7
:100E600060FF04C06F5F7F4F8F4F9F4F089557FD06
:100E70009058440F551F59F05F3F71F04795880F08
:100E800097FB991F61F09F3F79F08795089512169F
:100E900013061406551FF2CF4695F1DF08C016164B
:100EA00017061806991FF1CF8695710561050894FC
:100EB0000895E894BB2766277727CB0197F9089513
:100EC0000E94EB0608F48FEF08950E9478070C94B7
:100ED00026070E94180738F00E941F0720F095236C
:100EE00011F00C940F070C94150711240C945A0759
:100EF0000E94370770F3959FC1F3950F50E0551F7F
:100F0000629FF001729FBB27F00DB11D639FAA275E
:100F1000F00DB11DAA1F649F6627B00DA11D661FAD
:100F2000829F2227B00DA11D621F739FB00DA11DCE
:100F3000621F839FA00D611D221F749F3327A00D88
:100F4000611D231F849F600D211D822F762F6A2F24
:100F500011249F5750409AF0F1F088234AF0EE0F89
:100F6000FF1FBB1F661F771F881F91505040A9F7B6
:100F70009E3F510580F00C940F070C945A075F3F79
:100F8000E4F3983ED4F3869577956795B795F795F2
:100F9000E7959F5FC1F7FE2B880F911D969587956A
:100FA00097F908950E94EB06880B990B0895A1E22A
:100FB0001A2EAA1BBB1BFD010DC0AA1FBB1FEE1FD3
:100FC000FF1FA217B307E407F50720F0A21BB30B1E
:100FD000E40BF50B661F771F881F991F1A9469F79A
:100FE00060957095809590959B01AC01BD01CF01F6
:100FF0000895EE0FFF1F0590F491E02D099481E014
:0C10000090E0F8940C940408F894FFCFE2
:10100C002601260100000000960227019D029C0289
:10101C0020202020202049544E5920202020202000
:10102C0000202020594F4759414B41525441202018
:10103C00200052504D203D20006E616E00696E669E
:0E104C00006F7666005355445554203D200039
:00000001FF
