:1000000012C02CC02BC02AC029C028C027C026C0BF
:1000100025C0EBC023C022C021C020C01FC01EC00D
:100020001DC01CC01BC011241FBECFE5D4E0DEBF25
:10003000CDBF10E0A0E6B0E0ECE6F2E002C0059033
:100040000D92A437B107D9F720E0A4E7B0E001C0D2
:100050001D92A837B207E1F7B1D006C1D1CF20E099
:1000600030E0E1E0F0E087FF0AC095B3AF01022E77
:1000700001C0440F0A94EAF7492B45BB0BC045B3B6
:10008000BF01022E01C0660F0A94EAF7962F9095E1
:10009000942395BB880F2F5F3F4F2630310519F70A
:1000A00087FF02C0929A089592980895CF92DF92A6
:1000B000EF92FF920F931F93CF93DF93CDB7DEB7ED
:1000C00064970FB6F894DEBF0FBECDBF8C018AE0F7
:1000D000E0E6F0E0DE011B9601900D928A95E1F7D3
:1000E0008AE0EAE6F0E0DE01119601900D928A9531
:1000F000E1F7C80168EE73E0A3D06C01EBE0F0E03B
:10010000EC0FFD1FE60FF71F8081A9DFC59A8FE96D
:100110009FE00197F1F700C00000C59884E6E82E43
:10012000F12CC601B7018CD0E1E0F0E0EC0FFD1F2F
:10013000E60FF71F808193DFC49A8FE99FE0019754
:10014000F1F700C00000C498C801B70179D02AE0D7
:10015000E22EF12CB70174D0EBE0F0E0EC0FFD1FC4
:10016000E60FF71F80817BDFC39A8FE99FE001973D
:10017000F1F700C00000C398C801B70161D0E1E009
:10018000F0E0EC0FFD1FE80FF91F808168DFC29AD5
:100190008FE99FE00197F1F700C00000C2986496D4
:1001A0000FB6F894DEBF0FBECDBFDF91CF911F9188
:1001B0000F91FF90EF90DF90CF900895BD9A85E06A
:1001C00083BF12BE81E089BF86E08EBD78948FEF39
:1001D00084BB9CE397BB94E091BB88BB88BB8091B8
:1001E00074009091750062DFFACF1F920F920FB6E4
:1001F0000F9211248F939F93EF93FF93E0917600DA
:10020000F0917700CF01019690937700809376006C
:100210008C34910561F48181928190937500809373
:100220007400128211821092770010927600FF9172
:10023000EF919F918F910F900FBE0F901F90189587
:10024000AA1BBB1B51E107C0AA1FBB1FA617B707FC
:1002500010F0A61BB70B881F991F5A95A9F7809518
:0C0260009095BC01CD010895F894FFCFEB
:10026C0003DB85915931219B011121ED51458D07FE
:04027C00036D010508
:00000001FF
